:0A09EF0000010202030304040505E1
:10042800E4F513F512F511F510C203C200C202C2B9
:10043800011205887E087F008E238F24752B08758E
:100448002C1275210875221C752908752A4A752DE4
:1004580008752E78EE54C0700302052975140075CE
:1004680015808E168F17C3749C9FFF74089ECF2427
:1004780002CF3400FEE48F0F8E0EF50DF50CF50B50
:10048800F50AF509F508AF0FAE0EAD0DAC0CAB0BC8
:10049800AA0AA909A808C31209C75033E517250BEA
:1004A800F582E516350AF583E0FFE515250BF5829B
:1004B800E514350AF583EFF0E50B2401F50BE43577
:1004C8000AF50AE43509F509E43508F50880B78521
:1004D800142385152474002480FF740834FFFEC398
:1004E800E52C9FF52CE52B9EF52BC3E5269FF526DD
:1004F800E5259EF525C3E5289FF528E5279EF527E0
:10050800C3E5229FF522E5219EF521C3E52A9FF543
:100518002AE5299EF529C3E52E9FF52EE52D9EF5A2
:100528002DD2E843D82090E668E04409F090E65CD4
:10053800E0443DF0D2AFD20412089E90E680E05429
:10054800F7F0538EF8C2031202B73001051200808B
:10055800C2013003F2120A0A50EDC20312094C20FC
:10056800001690E682E030E704E020E1EF90E682B2
:10057800E030E604E020E0E41208CD120A0C80C75F
:0B09E40090E50DE030E402C322D322B6
:1000800090E6B9E0700302013F1470030201BC2442
:10009000FE700302023F24FB700302013914700357
:1000A00002013314700302012714700302012D248E
:1000B0000560030202A3120A0E40030202AF90E69B
:1000C000BBE024FE602714603824FD601114602713
:1000D00024067050E52390E6B3F0E524803C120935
:1000E000E4503EE52B90E6B3F0E52C802DE525901D
:1000F000E6B3F0E5268023E52790E6B3F0E5288017
:100100001990E6BAE0FF1208F9AA06A9077B01EAEE
:10011000494B600DEE90E6B3F0EF90E6B4F00202CA
:10012000AF02029E02029E1209B50202AF1209F945
:100130000202AF1206F80202AF1207EE0202AF127D
:100140000A1040030202AF90E6B8E0247F60151465
:10015000601924027063A200E43325E0FFA202E4E8
:10016000334F8041E490E740F0803F90E6BCE0549C
:100170007EFF7E00E0D394807C0040047D018002FD
:100180007D00EC4EFEED4F24EFF58274093EF583C1
:10019000E493FF3395E0FEEF24A1FFEE34E68F8277
:1001A000F583E0540190E740F0E4A3F090E68AF094
:1001B00090E68B7402F00202AF02029E120A124015
:1001C000030202AF90E6B8E024FE6016240260034A
:1001D0000202AF90E6BAE0B40105C2000202AF022B
:1001E000029E90E6BAE0705590E6BCE0547EFF7E39
:1001F00000E0D394807C0040047D0180027D00EC0F
:100200004EFEED4F24EFF58274093EF583E493FF33
:100210003395E0FEEF24A1FFEE34E68F82F583E014
:1002200054FEF090E6BCE05480131313541FFFE01B
:10023000540F2F90E683F0E04420F08072805F122C
:100240000A14506B90E6B8E024FE60192402704E48
:1002500090E6BAE0B40104D200805490E6BAE064BB
:1002600002604C803990E6BCE0547EFF7E00E0D313
:1002700094807C0040047D0180027D00EC4EFEED08
:100280004F24EFF58274093EF583E493FF3395E044
:10029000FEEF24A1FFEE34E68F82F583800D90E619
:1002A000A08008120924500790E6A0E04401F090D5
:0702B000E6A0E04480F0220B
:03003300020A06B8
:040A060053D8EF32A0
:100800001201000200000040B404041000000102C4
:1008100000010A06000200000040010009022E004B
:1008200001010080320904000004FF0000000705F8
:100830000102400000070581024000000705820216
:100840000002000705860200020009022E000101D5
:100850000080320904000004FF00000007050102C7
:1008600040000007058102400000070582024000A9
:100870000007058602400000040309041203430038
:100880004600580032004C004F00470032000E0373
:0E08900045005A002D005500530042000000A4
:03004300020700B1
:03005300020700A1
:100700000206E00002099F00020989000209710047
:100710000207B8000206A300020A1600020A170028
:10072000020A1800020A1900020A1A00020A1B0033
:10073000020A1C00020A1D00020A1E00020A1F0013
:10074000020A2000020A1700020A2100020A2200FF
:10075000020A2300020A2400020A2500020A2600D7
:10076000020A2700020A1700020A1700020A1700ED
:10077000020A2800020A2900020A2A00020A2B00A3
:10078000020A2C00020A2D00020A2E00020A2F0083
:10079000020A3000020A3100020A3200020A330063
:1007A000020A3400020A3500020A3600020A370043
:0807B000020A3800020A3900B8
:1008CD0090E682E030E004E020E60B90E682E03036
:1008DD00E119E030E71590E680E04401F07F147EE9
:0C08ED000012065D90E680E054FEF02250
:10089E0030040990E680E0440AF0800790E680E09C
:1008AE004408F07FDC7E0512065D90E65D74FFF075
:0F08BE0090E65FF05391EF90E680E054F7F02260
:0208F900A9074D
:1008FB00AE2DAF2E8F828E83A3E064037017AD01F4
:10090B0019ED7001228F828E83E07C002FFDEC3E6F
:08091B00FEAF0580DFE4FEFFE2
:0109230022B1
:10094C0090E682E044C0F090E681F043870100001D
:04095C000000002275
:10065D008E188F1990E600E054187012E5192401D8
:10066D00FFE43518C313F518EF13F519801590E64F
:10067D0000E05418FFBF100BE51925E0F519E5183A
:10068D0033F518E5191519AE18700215184E6005D9
:06069D0012096080EE224C
:100960007400F58690FDA57C05A3E582458370F9AA
:010970002264
:1005880090E600E054E74412F090E6187404F00096
:10059800000090E619F000000090E61AF000000054
:1005A80090E61BF0000000120A0190E61074A0F01B
:1005B80090E611F0000000E490E68DF090E60B74F0
:1005C80003F000000090E61274E0F000000090E6EE
:1005D80014F000000090E615E0547FF00000009051
:1005E800E613E0547FF0000000E490E609F0000014
:1005F8000090E6207402F0000000E490E621F0008C
:10060800000090E6247402F0000000E490E625F073
:1006180000000090E6047480F00000007482F0008E
:1006280000007484F00000007486F00000007488F4
:10063800F0000000E4F000000075AF0790E60274D7
:10064800ECF000000090E603740BF000000075B0B9
:05065800C075B5C022D1
:1002B70090E6A1E030E10302042790E68DE0F51A0D
:1002C700E4F51B74E7F59A7480F59B7AE779C07EAD
:1002D700E774E7F59D74C0F59EAF1A151AEF700322
:1002E70002041A90E67BE024B0B4100050EB9003B0
:1002F7000375F003A4C58325F0C583730203D302F6
:1003070003FC0203B40204010202E0020406020332
:100317003302037302034F0203A902039702034543
:100327000202E00202E00202E002040F90E67BE034
:1003370044C0F51CE0451CF5B5631CFF802790E61B
:100347007BE0F51F151A8091E5B0551C4480FF909E
:10035700E67BE04FF5B090E60174E0F075B3FF90EF
:10036700E67BE0F590151A151A0202E0E5B0551C78
:100377004440FF90E67BE04FF5B090E60174E0F073
:10038700E4F5B390E67CE590F0051B151A0202E050
:10039700E51CF455B0FF90E67BE04FF5B0151A0267
:1003A70002E090E67CE5B0F0051B0202E090E60172
:1003B700E51FF090E6047480F00000007486F000FA
:1003C7000000E4F000000090E61A801D90E601E5C9
:1003D7001FF090E6047480F00000007482F00000C3
:1003E70000E4F000000090E618740CF000000053E1
:1003F700B03F0202E090E618800890E61A8003906A
:10040700E61B7404F00202E0E5B0543F44C0F5B0C7
:100417000202E0E490E68DF0E51B600490E68FF0C1
:0104270022B2
:020A0A00D322F5
:020A0C00D322F3
:020A0E00D322F1
:0806F80090E6BAE0F51ED322E2
:1007EE0090E740E51EF0E490E68AF090E68B04F088
:0207FE00D32204
:0809F90090E6BAE0F51DD322DF
:1009B50090E740E51DF0E490E68AF090E68B04F0C0
:0209C500D3223B
:020A1000D322EF
:020A1200D322ED
:020A1400D322EB
:1009240090E6B9E0242F600D04701990E604E0FF0E
:10093400430780800890E604E0FF53077F0000002F
:08094400EFF08002D322C32270
:1006E000C0E0C083C082D2015391EF90E65D7401F7
:0806F000F0D082D083D0E0328B
:10098900C0E0C083C0825391EF90E65D7404F0D05B
:0609990082D083D0E032A1
:10099F00C0E0C083C0825391EF90E65D7402F0D047
:0609AF0082D083D0E0328B
:1007B800C0E0C083C082852925852A2685268285B2
:1007C8002583A37402F08521278522288528828520
:1007D8002783A37407F05391EF90E65D7410F0D06F
:0607E80082D083D0E03254
:10097100C0E0C083C082D2035391EF90E65D74085A
:08098100F0D082D083D0E032F7
:1006A300C0E0C083C08290E680E030E7208521254A
:1006B300852226852682852583A37402F085292732
:1006C300852A28852882852783A37407F05391EF11
:0D06D30090E65D7420F0D082D083D0E0323C
:010A160032AD
:010A170032AC
:010A180032AB
:010A190032AA
:010A1A0032A9
:010A1B0032A8
:010A1C0032A7
:010A1D0032A6
:010A1E0032A5
:010A1F0032A4
:010A200032A3
:010A210032A2
:010A220032A1
:010A230032A0
:010A2400329F
:010A2500329E
:010A2600329D
:010A2700329C
:010A2800329B
:010A2900329A
:010A2A003299
:010A2B003298
:010A2C003297
:010A2D003296
:010A2E003295
:010A2F003294
:010A30003293
:010A31003292
:010A32003291
:010A33003290
:010A3400328F
:010A3500328E
:010A3600328D
:010A3700328C
:010A3800328B
:010A3900328A
:050A0100C28CC2A92215
:030000000209D81A
:0C09D800787FE4F6D8FD75812E0204281B
:1009C700EB9FF5F0EA9E42F0E99D42F0E89C45F086
:0109D70022FD
:00000001FF
